:020000040800F2
:10000000200A0020A50100081D2D0008152D00085C
:10001000192D0008C50F0008353200080000000047
:10002000000000000000000000000000492D000852
:10003000C90F0008000000001F2D00084B2D00080C
:10004000BF010008BF010008BF010008BF01000890
:10005000BF010008BF010008BF010008BF01000880
:10006000BF010008BF010008BF010008BF01000870
:10007000BF010008BF010008BF010008BF01000860
:10008000BF010008BF010008BF0100080000000018
:10009000000000000000000000000000BF01000898
:1000A0000000000000000000000000000000000050
:1000B000BF010008BF010008552D0008BF0100085E
:1000C000BF010008BF010008BF010008BF01000810
:1000D000BF0100080531000895310008BF01000884
:1000E000BF010008BF01000800F002F800F04AF864
:1000F0000AA090E8000C82448344AAF10107DA4583
:1001000001D100F03FF8AFF2090EBAE80F0013F08A
:10011000010F18BFFB1A43F0010318477463000076
:1001200094630000103A24BF78C878C1FAD8520707
:1001300024BF30C830C144BF04680C607047000061
:100140000023002400250026103A28BF78C1FBD8E0
:10015000520728BF30C148BF0B607047642900F0C8
:10016000B380732900F06382002070471FB59DE8BB
:10017000030000F083FC00F075FA1FBD10B500F01D
:10018000DAFA10BD00F03DFB1146FFF7EFFF03F078
:1001900019FB00F041FC03B4FFF7F0FF03BC00F0D3
:1001A000FFFD00000948804709480047FEE7FEE7D9
:1001B000FEE7FEE7FEE7FEE7FEE7FEE7FEE7FEE717
:1001C00004480549054A064B70470000532D0008B6
:1001D000E900000820040020200A0020200600205A
:1001E000200600200FB4044910B503AA029800F0BD
:1001F00023FA10BC5DF814FB180300200FB41CB5E3
:10020000084B06AA7B4469460090059800F0E5F982
:1002100004460020694600F0F3F920461CBC5DF856
:1002200014FB0000F903000070B5044685690068FE
:10023000C10601D5302600E02026C00707D070BDDA
:10024000D4E9012130469047206A401C20626D1E8F
:10025000F6D570BD70B5044685690078C00707D132
:1002600070BDD4E9012120209047206A401C206203
:100270006D1EF6D570BD70B50C460546012A05D039
:100280002878800600D5EA69002302E0012305E012
:100290005B1C934202D2E05C0028F9D1A869E61801
:1002A000C01AA861286A184428622846FFF7BCFFD4
:1002B00004E0D5E9012114F8010B9047B442F8D3CA
:1002C0002846FFF7C7FF70BD2DE9F0410646002420
:1002D00010687529314616A510D0AFF300800028AC
:1002E00002DA404213A507E031688A0701D512A55A
:1002F00002E0490704D511A5012401E0AFF3008015
:1003000000210A2206F1240709E0B0FBF2FCB0FB51
:10031000F2F302FB1C00303078541846491C0028C8
:10032000F3D123462A463046BDE8F04100F0F6B846
:10033000000000002D0000002B0000002000000045
:100340002DE9F05F894604464FF0000ADFF874B1EA
:10035000FB44C0F820A02046E1688847002874D0FC
:10036000252806D0D4E901219047206A401C20624C
:10037000F1E700265F462046E168884720280546C9
:1003800007DB312D05D2781910F8200C08B106438F
:10039000F1E7B00701D526F00406C4F81CA0002739
:1003A000C4F818A02A2D09D0284602F061FF38B3FE
:1003B00004EB8708303DC8F8185019E059F8041BC1
:1003C000204604EB87029161E1688847012F0546CA
:1003D00018D1E069002820DA26F020061DE0D8F8C0
:1003E000180000EB800005EB40003038C8F818001A
:1003F0002046E1688847054602F03AFF0028EED122
:10040000012F0AD02E2D08D12046E16888477F1C95
:100410000546022F46F02006C4DBA069002803DA57
:10042000404246F00106A061F00701D026F0100618
:100430006C2D0BD0682D09D04C2D39D06A2D35D0BC
:10044000742D35D07A2D33D016E038E0E1682F4690
:1004500020468847B842054609D16C2F26D04FF474
:100460008060E168064320468847054604E06C2F1B
:100470001AD04FF4807006430DB3A5F1410019283E
:1004800002D8203546F400664A46294620462660B2
:100490004E46FFF763FE80B101280BD0F61D26F013
:1004A000070000F1080956E74020E4E78020D8E77C
:1004B0000020D6E706F104094DE7284652E7206AF6
:1004C000BDE8F09F1C6100004FF0000200B513462C
:1004D00094469646203922BFA0E80C50A0E80C5064
:1004E000B1F12001BFF4F7AF090728BFA0E80C5015
:1004F00048BF0CC05DF804EB890028BF40F8042B0E
:1005000008BF704748BF20F8022B11F0804F18BF7A
:1005100000F8012B70477047704770472DE9F0478E
:100520000D4699469246044600F124080168880663
:1005300004D5E06921F01001216000E00120A8420B
:1005400001DD471B00E00027A1697A1902EB0900D1
:10055000081AA0612078C00602D42046FFF764FE86
:10056000002608E0D4E901211AF806009047206A25
:10057000401C761C20624E45F4DB2078C0060AD56C
:100580002046FFF751FE06E0D4E9012130209047D4
:10059000206A401C2062381EA7F10107F4DC07E046
:1005A000D4E9012118F805009047206A401C206218
:1005B000281EA5F10105F3DC2046FFF74BFE20784D
:1005C000000602D50220BDE8F0870120FBE700000D
:1005D00001694A1C02610878704700B58FB0CDE907
:1005E00001310021059105497944CDE903101146F7
:1005F0006846FFF7A5FE0FB000BD0000E5FFFFFF56
:100600000A6802F8010B0A60704710B5436913B11C
:10061000AFF3008001E0FFF72EFE012010BD12783D
:1006200000F124010A7000224A700122EDE71168EE
:100630004FF0FF32E9E70000074B70B50D467B44F1
:10064000FFF7CBFF0446284600F008F810B14FF042
:10065000FF3070BD204670BDD72D0000007B00F03C
:100660008000704710B542485421FFF72DFF4148E4
:100670005421FFF729FF40485421FFF725FF3F4948
:100680003B483C4A3F4B08603D490A603A49196083
:10069000531C0365481C1065012008653B48344A1B
:1006A00039A1784400F01CF920B9384878440A3858
:1006B00000F0BBF937482F4A35A1784400F010F913
:1006C00020B9344878440A3800F0AFF932482A4A51
:1006D0002FA1784400F004F920B92F4878440A3853
:1006E00000F0A3F940232248DC000021224600F05C
:1006F000D4F820B125487844543800F096F91D48C4
:1007000022464023002100F0C8F820B12148784457
:10071000543800F08AF9184822461023002100F0CE
:10072000BCF8002806D01C487844BDE81040563874
:1007300000F07BB910BD104870B5006D20F00104C9
:100740000B4800F043F90B4800F040F90A4800F06C
:100750003DF909E0206D20F00105204600F036F952
:10076000204600F073F82C46002CF3D170BD000039
:10077000C4020020180300206C0300202000002089
:10078000240000202800002072000000DB5D000033
:1007900077000000C75D0000B35D00000EB5CDE935
:1007A000000100F0DDFA029069460120ABBE0EBDEB
:1007B00008B5694600900220ABBE08BD1FB58DE8A4
:1007C000070069460520ABBE04B010BD1FB58DE81B
:1007D0000F0069460620ABBEF6E708B569460090F3
:1007E0000920ABBE08BD1CB5CDE9000169460A2051
:1007F000ABBE1CBD704708B5694600900C20ABBE6F
:1008000008BD754600F018F9AE4605006946534626
:1008100020F00700854618B020B5FFF7D1FCBDE8F1
:1008200020404FF000064FF000074FF000084FF057
:10083000000B21F00701AC46ACE8C009ACE8C009E8
:10084000ACE8C009ACE8C0098D46704770B50446F5
:10085000051F00F0F7F80068002C14BF446870BD55
:10086000002C18BFAC423CBF20466468F8D3016836
:100870000A18AA4218BF456003D12A6805461144E8
:10088000016028684119A1421CBF6C6070BD61689D
:10089000696021680844286070BD70B5C468A50708
:1008A00013D0650211D4B2F5807F09D0B2F5007F74
:1008B00006D0B2F5806F08D1012300F1240106E0D3
:1008C0005D1E6FF07F46B54201D3012070BD01610E
:1008D000C361416024F470611143C160002070BDA8
:1008E0002DE9F0410C4607461646104600F06EF81A
:1008F0002078611C61280AD0722802D077283CD168
:1009000002E00125002405E00225042402E0082479
:1009100048F2020511F8010B2B2806D0622809D0F5
:1009200011F8010C74280AD00BE045F0030544F0DF
:100930000204EFE745F0040544F00104EAE744F05F
:10094000100438462146FFF729FF411C15D000212D
:10095000316171604FF40071F560F16170612007E1
:1009600004D530460222002100F0E6F8306D40F058
:10097000010030653046BDE8F0810020FBE72DE93D
:10098000F0410D460646104C206DC10704D04108C9
:1009900004D020F00104F7E722460EE0542000F0D6
:1009A0009CF807000ED0206D47F001010843542148
:1009B00020653846FFF788FD3A4629463046BDE8AF
:1009C000F0418DE70020D6E7C40200202DE9F04772
:1009D00004464FF000094FF0FF37C568D4E904869C
:1009E000A80707D0204600F057F93046FFF7E0FE91
:1009F000002802DA3846BDE8F087280502D54046CF
:100A0000FFF724FF4C212046FFF75EFD206D20F00C
:100A1000010020654846EEE710B50446AFF30080BC
:100A20002046BDE81040FFF7B6BB10B500F07EF9D8
:100A3000BDE8104000F074B900487047C0030020C2
:100A40007047000000487047C80300207047704797
:100A50007047704738B504460A4600206946AFF330
:100A60000080002808BF38BD02460099204600F0EB
:100A7000A4F9012038BD012000F0F3B9F8B5AFF3B7
:100A80000080054600200C46102000BF0646A8192D
:100A9000A0420DD9324669460020AFF3008007001E
:100AA00008BF00F0DEF90098A04218BF0546C4193F
:100AB000FFF7C8FF05600746F01D20F00700461944
:100AC000284600F073F9B44208BFF8BDA21B3146B6
:100AD0003868BDE8F84000F070B970B50646FFF719
:100AE000B1FF056806F10B0020F00704B4429CBF7B
:100AF000002070BD2B466A68BAB11068A04210D3BE
:100B000004F1080188423CBF5068586007D351681F
:100B1000101941601168091B016058601460101DB4
:100B200070BD13465268002AE7D121462846FFF7D8
:100B300091FF0028DED170BD2DE9F0410446164634
:100B40000D464769007B80072ED03846FFF745FEEB
:100B500050BB3EB3012E02D0022E25D104E0204628
:100B600000F045F905441DE03846FFF744FEE16812
:100B7000002841F01001E16005DA204600F058F845
:100B80000120BDE8F081C9030BD56268E16A91429A
:100B900000D81146A26911442269891A814200DDF8
:100BA00008460544002D01DA0220EAE7E16A6068A0
:100BB000E268814206D29103E06203D522F400315B
:100BC00041F01002A6690027AE4213DCE16A8142BF
:100BD00001D90B4600E0034603EB060C2369ACEB9E
:100BE000030CAC4506DD814201D98C4600E0844609
:100BF0009C4505D1A760276042F02000A5620DE06A
:100C0000AD1BE669AE1B8142A66000D90846C01A3A
:100C1000281A20605819606022F02000034908401B
:100C2000E060002084F84870ABE70000BFCFD7FF3A
:100C3000C16821F4001141F08001C1600021816090
:100C4000016070472DE9F047814614460E464FF08B
:100C5000FF383248D5685769054209D03846A1693E
:100C6000FFF7C1FD002811DB2C48C0430540E560BB
:100C70002B46324649463846FFF7A0FDA16920F0D1
:100C80000042B21A11440028A16103D02046FFF7A8
:100C9000CFFF4046BDE8F08770B504460569C06ADD
:100CA0006168884200D80846E16821F42011E160BB
:100CB000C90312D5A84208D02246411B2846FFF797
:100CC000C1FF10B14FF0FF3070BD0020E562C4E9F4
:100CD0000150E06820F48030E060002070BD10B565
:100CE0000446C06820F02000E060A16AA069884244
:100CF0000DD02046FFF7D0FFE06820F4405040F0D0
:100D00001000E060A06AA0612069E062606044F2C7
:100D10004001E0688843E06010BD00001000020060
:100D2000002801D000F03CB87047000010B5014623
:100D300002A000F07DF8012010BD00005349475289
:100D4000545245443A2052656469726563743A208E
:100D500063616E2774206F70656E3A20000000009A
:100D600010B5431C02E010F8011B71B18107FAD1E4
:100D70004FF0013202C88C1A8C4314EAC211F9D028
:100D8000C01A0A0603D0C01E10BDC01A10BD0A0446
:100D900001D0801E10BD0902FCD0401E10BD000015
:100DA00001491820ABBEFEE72600020000210160C9
:100DB000C0E90110704710207047034640688C4618
:100DC000002818BF88423CBF03464068F8D3186823
:100DD0001844884207D00CF1030020F00700001DE2
:100DE000411A521A0146081D0A60FFF72FBD10B5BF
:100DF0000146C268900703D0900607D5886A0AE0CA
:100E000000F03EF801210160881E10BD8B69486822
:100E100018440B69C01A91F848301BB191F8491079
:100E2000401A10BD1103FCD50028FADD401E10BD8C
:100E300070B505460C460A2000E06D1C00F018F85D
:100E400035B128780028F8D102E0641C00F010F8D1
:100E500014B120780028F8D1BDE870400A2000F0D5
:100E600007B810B500F010F8BDE81040FFF758BF04
:100E700008B569468DF800000320ABBE08BD000030
:100E800000487047C003002010B5012805D000219C
:100E900003A0FFF7CDFF012010BD09A1F8E7000076
:100EA00053494752544D454D3A204F7574206F6653
:100EB0002068656170206D656D6F727900000000BB
:100EC0003A2048656170206D656D6F727920636F9F
:100ED000727275707465640070B5044600252068F0
:100EE000806800F0010018B32068806820F00100DD
:100EF0002168886000F088FD054613E000F084FD5D
:100F0000401B02280ED92068806800F0010048B11B
:100F1000A06A40F01000A062E06A40F00100E062C8
:100F2000012070BD2068806800F001000028E5D134
:100F30000020F6E738B50446002500200090206820
:100F4000806800F0010078BB2068806840F00100F4
:100F500021688860194800681949B0FBF1F00090D9
:100F600002E00098401E009000980028F9D100F09F
:100F70004BFD054619E000F047FD401B022814D93F
:100F80002068806800F0010078B9A06A40F0100085
:100F9000A062E06A40F00100E06200BF002084F837
:100FA000240000BF012038BD05E02068806800F003
:100FB00001000028DFD00020F5E70000000000203D
:100FC00040420F0000BFFEE770470000F8B504463E
:100FD00000260020009000BF94F82400012801D1D1
:100FE0000220F8BD012084F8240000BF2046FFF74E
:100FF00073FF06462046FFF79DFF0646002E69D187
:10100000A06A20F4885040F00200A062022000F0A4
:10101000ABFD34490968B1FBF0F04000009002E0FC
:101020000098401E009000980028F9D12068806840
:1010300040F008002168886000F0E6FC054616E0F4
:1010400000F0E2FC401B0A2811D92068806800F0FB
:10105000080060B1A06A20F0020040F01000A06219
:1010600000BF002084F8240000BF0120B9E72068F9
:10107000806800F008000028E2D12068806840F015
:1010800004002168886000F0BFFC054616E000F00F
:10109000BBFC401B0A2811D92068806800F00400BE
:1010A00060B1A06A20F0020040F01000A06200BF12
:1010B000002084F8240000BF012092E720688068A7
:1010C00000F004000028E2D1A06A20F0020040F005
:1010D0000100A06200BF002084F8240000BF304659
:1010E0007FE700000000002038B502460023002002
:1010F000009000BF92F82400012801D1022038BDE1
:10110000012082F8240000BF4868072812D2106826
:10111000406B0C79641E04EB84051F24AC40A04393
:101120000D796D1E05EB85050C68AC4020431468F5
:10113000606327E048680D2812D21068006B0C79B4
:10114000E41F04EB84051F24AC40A0430D79ED1F80
:1011500005EB85050C68AC4020431468206311E062
:101160001068C06A0C790D3C04EB84051F24AC4068
:10117000A0430D790D3D05EB85050C68AC4020437F
:101180001468E06208680A2812D31068C0680C78F6
:101190000A3C04EB44050724AC40A0430D780A3D0B
:1011A00005EB45058C68AC4020431468E0600FE017
:1011B000106800690C7804EB44050724AC40A04398
:1011C0000D7805EB45058C68AC4020431468206120
:1011D0000868102802D00868112827D1174C106819
:1011E000A0421ED11068806800F40000F0B91068B9
:1011F000806840F400001468A0600868102815D1C9
:101200000F4800680F4CB0FBF4F000EB800040008A
:10121000009002E00098401E009000980028F9D14C
:1012200004E0906A40F020009062012300BF00209B
:1012300082F8240000BF184661E700000024014046
:101240000000002040420F0001460868C06C704753
:101250002DE9F0410446002700250026A84614B9D0
:101260000120BDE8F081A06810B1207D00B100BF71
:10127000A06A30B90020E06284F82400204600F023
:1012800089F82046FFF728FE0746A06A00F0100004
:10129000002873D1002F71D1A06A20F4885040F04B
:1012A0000200A062E16960680843217B40EA4100D6
:1012B0000643A068B0F5807F02D0A068012802D163
:1012C0004FF4807000E000200543207D012811D1FB
:1012D000207B38B9A069401E4FF4006141EA4030DC
:1012E000054307E0A06A40F02000A062E06A40F0F9
:1012F0000100E0622068406820F4694028432168CA
:10130000486020688068214908403043216888602F
:10131000A068B0F5807F02D0A068012802D14FF408
:10132000807000E00020B0F5807F03D1208A401E4D
:101330004FEA00582068C06A20F4700040EA0800B4
:101340002168C8622068806811490840B04208D10D
:101350000020E062A06A20F0020040F00100A062DC
:1013600011E0A06A20F0020040F01000A062E06AE4
:1013700040F00100E062012705E0FFE7A06A40F0CD
:101380001000A062012738466BE70000FDF7E1FF7F
:10139000FE0E1FFF10B58AB004461D492068884222
:1013A00033D1002006900790089009900290039096
:1013B0000490059000BF1748806940F400701549FB
:1013C00088610846806900F40070019000BF00BF8A
:1013D00000BF0846806940F00400886108468069C3
:1013E00000F00400019000BF00BF02200290032023
:1013F000039002A9084800F069F9022006908003D2
:10140000089006A800F02EFC00BF0AB010BD000036
:10141000002401400010024000080140F8B50446D5
:101420000D46002600200090002700F0EDFA064649
:101430002068806800F4807050B1A06A40F02000FD
:10144000A06200BF002084F8240000BF0120F8BD86
:101450002068406800F4807020BB2068C06A00F4F7
:101460007000F8B917E0681CA8B125B100F0CCFAFB
:10147000801BA8420FD92068006800F0020050B914
:10148000A06A40F00400A06200BF002084F824009D
:1014900000BF0320DBE72068006800F0020000289E
:1014A000E1D053E0022000F05FFB38490968B1FB4E
:1014B000F0F021680969364A114091B92168C9687C
:1014C0009211114069B921680969324A114031B954
:1014D0002168C9689211114009B9142117E0292126
:1014E00015E0216809692B4A114021B92168C968B2
:1014F0009211114041B121680969274A114029B967
:101500002168C968114009B9542100E0FC2100FBA1
:1015100001F718E0681C98B125B100F075FA801B3E
:10152000A8420DD90098B8420AD2A06A40F004003F
:10153000A06200BF002084F8240000BF032086E7DB
:101540000098401C00900098B842E3D36FF012005E
:1015500021680860A06A40F40070A062206880687A
:1015600000F46020B0F5602F0DD1207B58B9A06A3F
:1015700020F48070A062A06A00F4805018B9A06ABC
:1015800040F00100A062002061E7000000000020A0
:1015900024499224922449124992240070B50446A9
:1015A000002500BF94F82400012801D1022070BD5D
:1015B000012084F8240000BF2046FFF7BBFC05464D
:1015C000002D77D1A06A40F20121884340F4807059
:1015D000A0623C492068884208D13B48006800F47A
:1015E000702008B9012002E0002000E0012078B15D
:1015F000A06A20F48010A0622068406800F4806037
:1016000000B3A06A20F4005040F48050A06219E0BA
:10161000A06A40F48010A0622B49091F206888420C
:1016200003D028492068884204D12748006800F484
:10163000806000E0002028B1A06A20F4005040F44F
:101640008050A062A06A00F4805020B1E06A20F0CF
:101650000600E06201E00020E06200BF002084F8A4
:10166000240000BFC01E216808602068806800F464
:101670006020B0F5602F16D112492068884208D149
:101680001148006800F4702008B9012002E0002031
:1016900000E0012038B12068806840F4A000216893
:1016A00088600CE006E02068806840F480102168C3
:1016B000886004E000BF002084F8240000BF2846B2
:1016C00075E7000000280140042401402DE9F84797
:1016D0000346002294466EE14FF0010808FA02F436
:1016E000D1F8008008EA0400A0427DD1DFF8DCA236
:1016F000D1F80480A8EB0A09D0453AD014DCB8F13F
:10170000030F50D009DCB8F1000F31D0B8F1010F50
:101710001CD0B8F1020F49D120E0B8F1110F18D058
:10172000B8F1120F42D11EE0B9F5881F25D006DCB2
:10173000B9F5803F20D0B9F5801F37D11AE0B9F54F
:10174000001F18D0B9F5041F30D117E0D1F80CC034
:101750002DE0D1F80C8008F1040C28E0D1F80C80C1
:1017600008F1080C23E0D1F80C8008F10C0C1EE005
:1017700000BF00BF00BF00BF00BF00BFD1F808809E
:10178000B8F1000F02D14FF0040C0BE0D1F8088043
:10179000B8F1010F03D14FF0080C1C6102E04FF0CB
:1017A000080C5C6103E04FF0000C00E000BF00BFDC
:1017B000FF2801D8984601E003F104084646FF28B7
:1017C00002D84FEA820803E0A2F108084FEA88082D
:1017D0004746D6F800804FF00F0909FA07F928EAC2
:1017E00009080CFA07F900E088E048EA0908C6F899
:1017F0000080D1F8048008F08058B8F1805F7DD176
:1018000000BFDFF8CC81D8F8188048F00108DFF875
:10181000C091C9F81880C846D8F8188008F00108A7
:10182000CDF8008000BF00BF4FEAB9384FEA9209F7
:1018300058F829504FEA82784FEA18794FF00F088C
:1018400008FA09F825EA0805DFF88881434502D13E
:101850004FF0000816E0DFF88081434502D14FF0D9
:1018600001080FE0DFF87481434502D14FF0020810
:1018700008E0DFF86C81434502D14FF0030801E036
:101880004FF004084FEA82794FEA197908FA09F80B
:1018900048EA0505DFF84C814FEA920948F82950DB
:1018A000D1F8048008F48018B8F5801F0AD1DFF859
:1018B0003881D8F8008048EA0008DFF82C91C9F890
:1018C000008009E0DFF82081D8F8008028EA0008CD
:1018D000DFF81491C9F80080D1F8048008F40018EA
:1018E000B8F5001F10D1DFF8008108F10408D8F81E
:1018F000008048EA0008DFF8F09000E05AE009F1C3
:101900000409C9F800800DE0DFF8DC8008F1040864
:10191000D8F8008028EA0008DFF8CC9009F1040923
:10192000C9F80080D1F8048008F40038B8F5003F09
:101930000ED1DFF8B480A8F10408D8F8008048EA96
:101940000008DFF8A490A9F10409C9F800800DE0AF
:10195000DFF89480A8F10408D8F8008028EA00088D
:10196000DFF88490A9F10409C9F80080D1F8048057
:1019700008F48038B8F5803F0ED1DFF86C80A8F10C
:101980000808D8F8008048EA0008DFF85C90A9F160
:101990000809C9F800800DE0DFF84C80A8F10808BC
:1019A000D8F8008028EA0008DFF83C90A9F108097F
:1019B000C9F80080521CD1F8008028FA02F8B8F16A
:1019C000000F7FF489AEBDE8F88700000000111019
:1019D0000010024000080140000C014000100140CE
:1019E00000140140080001400804014002469368C9
:1019F0000B400BB1012000E0002070470AB10161EB
:101A000001E00B0403617047014800687047000063
:101A1000140000200348006803490978084401497C
:101A200008607047140000201C00002010B5084812
:101A3000006840F0100006490860032000F080F8BC
:101A40000F2000F007F800F02BF8002010BD000078
:101A50000020024070B504460E4800784FF47A71B9
:101A6000B1FBF0F00C490968B1FBF0F5284600F035
:101A7000E7FC08B1012070BD102C07D200222146DE
:101A8000501E00F01EF80548046001E00120F2E756
:101A90000020F0E71C0000200000002018000020BB
:101AA000704701460846002809DB00F01F030122A9
:101AB0009A4043099B0003F1E023C3F8002100BFD3
:101AC00070472DE9F05F80460D461646002701F06D
:101AD000B3FB074639462A46334601F00700C0F1FA
:101AE000070ABAF1040F02D94FF0040A01E0C0F16D
:101AF000070AD14600F1040ABAF1070F02D24FF0EB
:101B0000000A01E0A0F1030AD4464FF0010A0AFAE4
:101B100009FAAAF1010A0AEA020A0AFA0CFA4FF0D3
:101B2000010B0BFA0CFBABF1010B0BEA030B4AEABE
:101B30000B042146404601F087FBBDE8F09F000002
:101B400000BF00F00702064B19684FF6FF0319406B
:101B5000044B0B4343EA0221014B196000BF70475D
:101B60000CED00E00000FA052DE9F04706464FF0C5
:101B70000008002500270024A146012E31D0022EA6
:101B800056D0102E5FD132484468006800F0807053
:101B900008B33048C4F38341475C04F4803078B123
:101BA0002B484068C0F340402B4911F8008004F4F2
:101BB000803040B12948B0FBF8F000FB07F502E0A7
:101BC000274807FB00F52248406800F48000B0F584
:101BD000800F01D1A94603E068000321B0FBF1F9B1
:101BE00032E01B48046A04F44070B0F5807F05D1F0
:101BF00004F0020010B14FF4004918E004F4407002
:101C0000B0F5007F07D11248406A00F0020010B121
:101C100049F640490BE004F44070B0F5407F06D12E
:101C20000B48006800F4003008B14FF224490BE083
:101C300000F08CF906494968C1F38131491C49001B
:101C4000B0FBF1F900E000BF00BF4846BDE8F087F7
:101C5000001002405E6400086E64000800127A0002
:101C600000093D00F8B5044600260025207800F064
:101C7000010000286BD000274348C06900F0805065
:101C800070B900BF4048C06940F080503E49C8610B
:101C90000846C06900F08050009000BF00BF0127D7
:101CA0003A48006800F48070B0B93848006840F4E1
:101CB000807036490860FFF7A7FE064606E0FFF78A
:101CC000A3FE801B642801D90320F8BD2F480068BB
:101CD00000F480700028F2D02B48006A00F44075B0
:101CE0002DB3A08800F44070A84220D02648006A96
:101CF00020F4407501202649086000200860224831
:101D0000056205F0010090B1FFF77EFE064608E08F
:101D1000FFF77AFE801B41F28831884201D9032007
:101D2000D3E71948006A00F002000028F0D01648F6
:101D3000006A20F440706168084313490862012F6B
:101D400004D10846C06920F08050C86100BF2078E7
:101D500000F00200022807D10B48406820F4404000
:101D6000A168084308494860207800F01000102856
:101D700007D10548406820F48000E1680843024923
:101D800048600020A1E70000001002400070004001
:101D90004004424270B504460D460CB9012070BDA6
:101DA0005A48006800F00700A8420ED25748006861
:101DB00020F007002843554908600846006800F0F5
:101DC0000700A84201D00120E9E7207800F00200D6
:101DD00002281DD1207800F00400042805D14C48C9
:101DE000406840F4E0604A494860207800F008000C
:101DF000082805D14648406840F46050444948608E
:101E00004348406820F0F000A1680843404948601A
:101E1000207800F0010078B36068012806D13C48C2
:101E2000006800F4003090B90120B8E7606802282B
:101E300006D13748006800F0007040B90120AEE7D5
:101E40003348006800F0020008B90120A7E73048D5
:101E5000406820F00300616808432D494860FFF79F
:101E6000D3FD064609E0FFF7CFFD801B41F2883124
:101E7000884202D9032092E707E02548406800F035
:101E80000C006168B0EB810FEDD12048006800F0D4
:101E90000700A8420ED91D48006820F0070028431B
:101EA0001A4908600846006800F00700A84201D0FF
:101EB000012074E7207800F00400042807D11448BA
:101EC000406820F4E060E1680843114948602078E8
:101ED00000F00800082808D10D48406820F4605040
:101EE000216940EAC1000A49486000F03FF808490A
:101EF0004968C1F30311074A515CC84006490860AC
:101F000006480068FFF7A6FD002048E700200240D1
:101F100000100240EC4300080000002018000020E0
:101F200001480068704700000000002000B5FFF77E
:101F3000F7FF04494968C1F30221034A515CC840D4
:101F400000BD000000100240FC43000800B5FFF790
:101F5000E7FF04494968C1F3C221034A515CC84004
:101F600000BD000000100240FC43000870B50021D5
:101F70000022002400230020134D696801F00C05A5
:101F8000F5B1042D02D0082D19D101E00F4819E058
:101F90000F4DC1F38346AB5D01F4803555B10A4D59
:101FA0006D68C5F340450B4E725D084D5D43B5FB52
:101FB000F2F402E0084D03FB05F4204602E000BF06
:101FC000024800BF00BF70BD0010024000127A003E
:101FD0004C6400085C64000800093D00F8B5044644
:101FE0000CB90120F8BD207800F00100002878D05D
:101FF000F848406800F00C0004280CD0F548406810
:1020000000F00C00082811D1F248406800F480303C
:10201000B0F5803F0AD1EF48006800F40030002896
:102020005FD0606800285CD10120DBE700BF6068FA
:10203000B0F5803F06D1E748006840F48030E549BC
:10204000086028E0606858B9E248006820F48030F1
:10205000E04908600846006820F4802008601AE023
:102060006068B0F5A02F0BD1DA48006840F48020FA
:10207000D84908600846006840F4803008600AE0EB
:10208000D448006820F48030D249086008460068CF
:1020900020F48020086000BF606888B1FFF7B4FCBE
:1020A000054606E0FFF7B0FC401B642801D9032079
:1020B00098E7C848006800F400300028F2D010E02B
:1020C000FFF7A2FC054606E0FFF79EFC401B6428D4
:1020D00001D9032086E7BF48006800F400300028DB
:1020E000F2D1207800F00200022857D1B9484068A8
:1020F00000F00C0050B1B748406800F00C00082810
:1021000018D1B448406800F4803098B9B1480068EC
:1021100000F0020020B12069012801D0012061E710
:10212000AC48006820F0F800616940EAC100A949A4
:10213000086033E02069E8B10120A7490860FFF793
:1021400063FC054606E0FFF75FFC401B022801D94F
:10215000032047E79F48006800F002000028F2D003
:102160009C48006820F0F800616940EAC100994984
:10217000086013E0002098490860FFF745FC054619
:1021800006E0FFF741FC401B022801D9032029E7A4
:102190009048006800F002000028F2D1207800F09A
:1021A000080008282DD1A069B8B101208B4908602A
:1021B000FFF72AFC054606E0FFF726FC401B022835
:1021C00001D903200EE78348406A00F0020000288E
:1021D000F2D0012000F0A4FD13E000207F49086048
:1021E000FFF712FC054606E0FFF70EFC401B022835
:1021F00001D90320F6E67748406A00F00200002883
:10220000F2D1207800F00400042873D1002771482F
:10221000C06900F0805070B900BF6E48C06940F0DE
:1022200080506C49C8610846C06900F08050009039
:1022300000BF00BF01276A48006800F48070B0B991
:102240006748006840F4807065490860FFF7DCFB70
:10225000054606E0FFF7D8FB401B642801D90320A0
:10226000C0E65F48006800F480700028F2D000BF2C
:10227000E068012806D15748006A40F0010055493E
:10228000086227E0E06858B95248006A20F001006F
:10229000504908620846006A20F00400086219E00C
:1022A000E06805280BD14B48006A40F0040049491A
:1022B00008620846006A40F0010008620AE04548EA
:1022C000006A20F00100434908620846006A20F0D5
:1022D0000400086200BFE068A0B1FFF795FB054667
:1022E00009E0FFF791FB401B41F28831884202D997
:1022F000032077E622E03748006A00F00200002859
:10230000EFD012E0FFF780FB054608E0FFF77CFB0B
:10231000401B41F28831884201D9032062E62D48F2
:10232000006A00F002000028F0D1012F05D12948F1
:10233000C06920F080502749C86100BFE069C8B378
:102340002448406800F00C00082860D0E0690228AA
:1023500048D1002020490866FFF756FB054606E0F5
:10236000FFF752FB401B022801D903203AE6194827
:10237000006800F000700028F2D1206AB0F5803FBC
:1023800007D11448406820F40030A168084311497F
:102390004860D4E9080108430E49496821F47411E2
:1023A00008430C49486001200B490866FFF72CFBE5
:1023B000054607E03DE0FFF727FB401B022801D957
:1023C00003200FE60348006800F000700028F2D0F8
:1023D0002FE0000000100240000042428004424210
:1023E00000700040002014490866FFF70DFB054609
:1023F00006E0FFF709FB401B022801D90320F1E5A5
:102400000E48006800F000700028F2D111E0E06989
:10241000012800D1E6E50948466806F48031206AC3
:10242000814204D106F47011606A814201D001201A
:10243000D8E50020D6E5000000004242001002402E
:1024400070B504462546681EB0F1807F01D3012097
:102450000FE0681E4FF0E02148610F214FF0FF3080
:1024600000F0F2FE00204FF0E021886107200861B3
:10247000002070BD7047704710B504460CB90120AC
:1024800010BD94F83D0028B9002084F83C00204697
:1024900000F026F8022084F83D00211D206800F09D
:1024A00061FC012084F8460000BF84F83E00012151
:1024B0003F200155402001554120015500BF00BF7C
:1024C000012084F842004320015544200155452055
:1024D000015500BF012084F83D000020D0E7000036
:1024E00038B504460D492068884215D100BF0C4814
:1024F000C06940F004000A49C8610846C06900F09C
:102500000400009000BF00BF022211461E20FFF70A
:10251000D8FA1E20FFF7C5FA38BD000000080040B9
:1025200000100240014691F83D00012801D0012031
:102530007047022081F83D00124B086898420BD08A
:102540000868B0F1804F07D00F4B0868984203D05D
:102550000E4B086898420CD10868806800F00702AA
:10256000062A0CD00868006840F001000B6818606B
:1025700005E00868006840F001000B681860002062
:10258000D6E70000002C0140000400400008004095
:10259000014691F83D00012801D00120704702203A
:1025A00081F83D000868C06840F001000B68D86001
:1025B000124B086898420BD00868B0F1804F07D0E2
:1025C0000F4B0868984203D00E4B086898420CD114
:1025D0000868806800F00702062A0CD008680068C6
:1025E00040F001000B68186005E00868006840F0E2
:1025F00001000B6818600020D0E70000002C0140AB
:102600000004004000080040014600BF0868006A5E
:1026100041F21112104050B90868006A921010403F
:1026200028B90868006820F001000A68106000BF3F
:10263000012081F83D0000207047704710B5044626
:1026400020680069C0F34000D8B12068C068C0F3BA
:102650004000B0B16FF002002168086101202077CE
:102660002068806900F0030018B12046FFF7E5FFFD
:1026700005E0204600F0ADF8204600F099F9002072
:10268000207720680069C0F38000D8B12068C06856
:10269000C0F38000B0B16FF004002168086102202F
:1026A00020772068806900F4407018B12046FFF759
:1026B000C4FF05E0204600F08CF8204600F078F9D1
:1026C0000020207720680069C0F3C000D8B12068DE
:1026D000C068C0F3C000B0B16FF0080021680861A5
:1026E000042020772068C06900F0030018B120465C
:1026F000FFF7A3FF05E0204600F06BF8204600F04E
:1027000057F90020207720680069C0F30010D8B185
:102710002068C068C0F30010B0B16FF010002168ED
:102720000861082020772068C06900F4407018B163
:102730002046FFF782FF05E0204600F04AF82046D9
:1027400000F036F9002020772068006900F00100D1
:1027500058B12068C06800F0010030B16FF001008E
:1027600021680861204600F08FF920680069C0F3F5
:10277000C01058B12068C068C0F3C01030B16FF00D
:102780008000216808612046FFF774FE2068006918
:10279000C0F3801058B12068C068C0F3801030B119
:1027A0006FF0400021680861204600F07BF9206846
:1027B0000069C0F3401058B12068C068C0F34010F1
:1027C00030B16FF02000216808612046FFF753FE0A
:1027D00010BD70472DE9F04104460D46164600270E
:1027E00000BF94F83C00012802D10220BDE8F0812E
:1027F000012084F83C0000BF36B1042E1BD0082E07
:1028000031D00C2E5ED145E02946206800F0F6FA62
:102810002068806940F0080021688861206880692C
:1028200020F00400216888612068806929690843D4
:102830002168886148E02946206800F00FFB206885
:10284000806940F40060216888612068806920F414
:1028500080602168886120688069296940EA0120D8
:102860002168886130E02946206800F02BFB206851
:10287000C06940F008002168C8612068C06920F084
:1028800004002168C8612068C0692969084321687B
:10289000C86119E02946206800F048FB2068C0693B
:1028A00040F400602168C8612068C06920F480603D
:1028B0002168C8612068C069296940EA012021684F
:1028C000C86101E0012700BF00BF00BF002084F8FD
:1028D0003C0000BF384689E710B504460CB901201A
:1028E00010BD94F83D0028B9002084F83C00204633
:1028F00000F026F8022084F83D00211D206800F039
:1029000031FA012084F8460000BF84F83E0001211E
:102910003F200155402001554120015500BF00BF17
:10292000012084F8420043200155442001554520F0
:10293000015500BF012084F83D000020D0E70000D1
:1029400010B586B0044617492068884227D100BFD9
:102950001548806940F0080013498861084680697D
:1029600000F00800019000BF00BF00BF0846C0692A
:1029700040F00200C8610846C06900F00200019002
:1029800000BF00BF012002900220039001200490AC
:102990000320059002A90548FEF798FE00BF06B087
:1029A00010BD00000004004000100240000C014077
:1029B0007047000070B504460D4615B994F83E0006
:1029C0000BE0042D02D13F20005D06E0082D02D16E
:1029D0004020005D01E04120005D012801D0012080
:1029E00070BD1DB9022084F83E000EE0042D03D115
:1029F00002213F20015508E0082D03D1022140208B
:102A0000015502E00221412001550122294620689A
:102A100000F0E2F919492068884201D1012000E064
:102A2000002028B12068406C40F4004021684864D0
:102A30001249206888420BD02068B0F1804F07D03F
:102A40000F492068884203D00E49206888420CD183
:102A50002068806800F00706062E0CD02068006809
:102A600040F001002168086005E02068006840F03F
:102A70000100216808600020B2E70000002C01403E
:102A80000004004000080040044A0168914204D15B
:102A900003490968491C024A116070470008004058
:102AA0000C000020704710B504460CB9012010BD81
:102AB000A06900B100E000BF94F8410028B90020EF
:102AC00084F84000204600F029F8242084F84100D2
:102AD0002068C06820F400502168C860204600F0DB
:102AE00049FA2068006920F4904021680861206854
:102AF000406920F02A00216848612068C06840F4DD
:102B000000502168C86000206064202084F84100E3
:102B100084F842000020606300BFC8E710B586B0AB
:102B2000044649492068884244D100BF474880692B
:102B300040F00400454988610846806900F00400BF
:102B4000019000BF00BF00BF0846806940F480408C
:102B500088610846806900F48040019000BF00BF92
:102B60004815029002200390012004900320059054
:102B700002A93748FEF7AAFD4FF4806002900020BA
:102B8000039002A93248FEF7A1FD2520FEF789FF38
:102B9000032211462520FEF794FF2068C06840F00C
:102BA00020002168C8602068C06840F010002168DB
:102BB000C86046E027492068884242D100BF2348C8
:102BC000806940F00400214988610846806900F06E
:102BD0000400019000BF00BF00BF0846C06940F478
:102BE0000030C8610846C06900F40030019000BFA1
:102BF00000BF0420029002200390012004900320D3
:102C0000059002A91248FEF761FD082002900020FD
:102C1000039002A90E48FEF759FD2620FEF741FF5A
:102C2000032211462620FEF74CFF2068C06840F0C2
:102C300020002168C8602068C06840F0100021684A
:102C4000C86006B010BD000000380140001002400E
:102C500000080140004400402DE9F84F04460E46AC
:102C6000174699464FF0000A94F8420020284FD1A9
:102C700006B117B90120BDE8F88F0020606422205A
:102C800084F8420000202063FEF7BEFE8246A7853E
:102C9000E785A068B0F5805F04D1206910B90025F0
:102CA000B04602E035464FF0000829E053460022C6
:102CB00020212046CDF8009000F0DAF908B1032079
:102CC000D9E745B920684068C0F30800A8F80000BB
:102CD00008F1020811E0A068B0F5805F03D0A06899
:102CE00028B9206918B920684068287004E0206875
:102CF000406800F07F0028706D1CE08D401EE0856C
:102D0000E08D0028D2D1202084F842000020B2E7D4
:102D10000220B0E700BFFEE700BFFEE77047704744
:102D200008B508490968C9084FF47A72B1FBF2F195
:102D30004143009100BF00BF00994A1E0092002944
:102D4000F9D108BD00000020704710B5FEF762FE03
:102D500010BD704710B50248FFF770FC10BD0000B1
:102D6000B401002010B50268184B984208D0B0F1A9
:102D7000804F05D0164B984202D0164B984203D193
:102D800022F070024B681A43104B984208D0B0F101
:102D9000804F05D00E4B984202D00E4B984203D183
:102DA00022F44072CB681A4322F080034C6943EA54
:102DB000040202608B68C3620B688362034B984213
:102DC00001D10B6903630123436110BD002C014055
:102DD000000400400008004030B501F01F05012448
:102DE00004FA05F3046A9C430462046A01F01F05B7
:102DF00002FA05F52C43046230BD000030B5026ACA
:102E0000056A25F0010505624368846924F07004B1
:102E100024F003040D682C4322F002028D682A433B
:102E20000D4DA84206D100BF22F00802CD682A430A
:102E300022F00402084DA84207D123F4807323F442
:102E400000734D692B438D692B43436084614D684A
:102E50004563026230BD0000002C014030B5026ABB
:102E6000056A25F0100505624368846924F4E0448E
:102E700024F440740D6844EA052422F020028D6891
:102E800042EA05120E4DA84207D100BF22F080028F
:102E9000CD6842EA051222F04002094DA84209D14C
:102EA00023F4806323F400634D6943EA85038D694D
:102EB00043EA8503436084614D688563026230BDE7
:102EC000002C014030B5026A056A25F48075056260
:102ED0004368C46924F0700424F003040D682C4393
:102EE00022F400728D6842EA05220F4DA84207D1F4
:102EF00000BF22F40062CD6842EA052222F480621B
:102F0000094DA84209D123F4805323F400534D699D
:102F100043EA05138D6943EA05134360C4614D68B4
:102F2000C563026230BD0000002C014030B5036A69
:102F3000056A25F4805505624468C26922F4E042BE
:102F400022F440720D6842EA052223F400538D6892
:102F500043EA0533064DA84204D124F480444D6968
:102F600044EA85144460C2614D680564036230BD63
:102F7000002C014070B504462168096921F44051D4
:102F8000E2681143226811612269A16811436269F4
:102F900041EA02052168C96841F20C629143294364
:102FA0002268D1602168496921F44071A269114306
:102FB000226851612D4A2168914202D1FEF7C6FF75
:102FC00001E0FEF7B3FF00EBC00101EB0011626806
:102FD0009200B1FBF2F100EBC00202EB0012636859
:102FE0009B00B2FBF3F26423B2FBF3F202EBC203E9
:102FF00003EB0212A1EB8201322202EB01116422E7
:10300000B1FBF2F101F0F00100EBC00202EB0012A3
:1030100063689B00B2FBF3F26423B2FBF3F201EBB3
:10302000021200EBC00101EB001163689B00B1FBD1
:10303000F3F100EBC00303EB00136668B600B3FBCB
:10304000F6F36426B3FBF6F303EBC30606EB0313B8
:10305000A1EB8301322303EB01116423B1FBF3F1F4
:1030600001F00F0111442268916070BD00380140E9
:103070002DE9F04104460D4617469846069E34E079
:10308000701C88B32EB1FEF7BFFCA0EB0800B04265
:103090002BD900BF00BF21680C3151E8001F21F47B
:1030A000D07021680C3141E80002002AF3D100BF42
:1030B00000BF00BF2168143151E8001F21F001005A
:1030C0002168143141E80002002AF3D100BF20201A
:1030D00084F8410084F8420000BF002084F84000DA
:1030E00000BF0320BDE8F081FFE7206800682840AA
:1030F000A84201D1012000E00020B842C0D0002049
:10310000F0E700001CB5002001901C480068006832
:10311000C0F34010B8B11A480088802802D30020BC
:10312000174908804FF47A73012201A91348FFF769
:1031300093FD9DF80410124802880088401C104B33
:103140001880104881540D4800680068C0F30010D2
:1031500090B10C490CA0FDF745F800F07FFF00BFCF
:10316000002000900548006800680090034800684F
:103170004068009000BF00BF1CBD0000FC010020A3
:103180001200002044020020726563763A20257305
:103190000D0A00001CB5002001901E480068006860
:1031A000C0F34010B8B11C480088802802D300202A
:1031B000194908804FF47A73012201A91548FFF7D5
:1031C0004BFD9DF80410144802880088401C124BE7
:1031D0001880124881540F4800680068C0F300103E
:1031E000B0B10E490EA0FCF7FDFF0C480078104965
:1031F000087000F041FF00BF002000900548006803
:1032000000680090034800684068009000BF00BF5D
:103210001CBD00007400002008000020BC0000203D
:10322000627420726563763A2025730D0A000000EF
:103230000600002000BFFEE702480068C0F302203D
:10324000704700000CED00E010B5002804DB0A0711
:10325000130E054A135406E00A07140E034A00F041
:103260000F031B1FD45410BD00E400E018ED00E074
:1032700030380A2801D20120704700207047FEB57F
:1032800007460C4615461E4600200090019002900D
:1032900000940195029669463846FDF725FFFEBD6C
:1032A00010B504460723012221460748FFF7E7FF30
:1032B0000548FEF773F90A210348FEF7AFF8024804
:1032C000FDF7C2FF80B210BD8401002010B50B488D
:1032D0000B490860002048600021094881600173A3
:1032E000012101610021017581614FF46021C161FB
:1032F000FDF7AEFF0248FDF769FE10BD0024014056
:103300008401002000B585B000BF0E48806940F000
:1033100008000C4988610846806900F008000090A8
:1033200000BF00BF4FF400500190012002900390B5
:103330000320049001A90448FEF7C8F900F006F83C
:1033400005B000BD00100240000C014010B5012284
:1033500051030248FEF752FB10BD0000000C014073
:1033600010B500224FF400510148FEF747FB10BD95
:10337000000C014010B5044607480849086008469B
:10338000446000218160C160016181610C21416163
:10339000FFF789FB10BD00000044004074000020CE
:1033A000024908783921014A11707047060000204F
:1033B00010B5044603E04FF47A7000F005F8201EC3
:1033C000A4F10104F7D110BD014601EBC102D20006
:1033D0004FF0E0235A6100229A611A46126942F0C6
:1033E00004021A611A46126942F001021A6100BF12
:1033F0004FF0E022106900F001021AB100F48032AF
:10340000002AF5D04FF0E022126922F001024FF0BD
:10341000E0231A617047000000BF054A126802F0FD
:103420004002002AF9D0C2B2014B1B1D1A6070473E
:10343000003801402DE9F0470024A1460122D102C5
:103440001A48FEF7DBFA0F20FFF7BEFF00224FF409
:1034500000611648FEF7D2FA00BF4FF480511348BE
:10346000FEF7C4FA0028F8D000F09AFD002000F022
:1034700091FD00BF4FF480510C48FEF7B7FA0128C8
:10348000F8D000F095FD00F05BFD0446204600F00A
:1034900032FE0746064A074B00F040FE054600F0A4
:1034A000F9FD81464846BDE8F0870000000801406C
:1034B000006F8104C58F913F00B585B000BF1848EB
:1034C000806940F00400164988610846806900F070
:1034D0000400009000BF00BF00BF0846806940F0B4
:1034E000040088610846806900F00400009000BF75
:1034F00000BFC81401900120029000200390032017
:10350000049001A90748FEF7E1F84FF480500190BC
:103510000020029001A90348FEF7D8F805B000BDCD
:10352000001002400008014010B500F011FDFFF747
:10353000C3FF10BD10B54FF480510448FEF756FA92
:1035400008B9012010BD0020FCE70000000C01407C
:1035500000B585B000BF0C48806940F008000A49FA
:1035600088610846806900F00800009000BF00BF35
:1035700088140190002002900120039001A90348C3
:10358000FEF7A4F805B000BD00100240000801409D
:1035900000B585B000BF00BF2D48806940F0040031
:1035A0002B4988610846806900F00400009000BF44
:1035B00000BF00BF00BF00BF0846806940F00400A4
:1035C00088610846806900F00400009000BF00BFD9
:1035D00000BF00BF00BF0846806940F0040088615A
:1035E0000846806900F00400009000BF00BF00BFE3
:1035F00000BF00BF0846806940F0040088610846AB
:10360000806900F00400009000BF00BF00BF1020E0
:10361000019000200290012003900320049001A952
:103620000C48FEF753F82020019001A90948FEF745
:103630004DF84020019001A90648FEF747F8802088
:10364000019001A90348FEF741F805B000BD000054
:10365000001002400008014010B5002429480078FD
:10366000002832D010212848FEF7C0F970B120217F
:103670002548FEF7BBF948B140212348FEF7B6F9CB
:1036800020B180212048FEF7B1F9F0B90A20FFF7F8
:103690008FFE00201B49087010211B48FEF7A6F979
:1036A00000B9012420211848FEF7A0F900B902242E
:1036B00040211548FEF79AF900B9032480211248E9
:1036C000FEF794F9D8B9042419E010210E48FEF74A
:1036D0008DF9012813D120210B48FEF787F9012825
:1036E0000DD140210848FEF781F9012807D180213A
:1036F0000548FEF77BF9012801D1024908702046F0
:1037000010BD00000A0000200008014010B54FF471
:10371000E17000F0A9FB0320034908701022022188
:10372000462000F0F1FA10BD0400002010B547213A
:1037300040F2F31000F09EFB10BD0000014800783D
:10374000704700000400002010B5962000F08CFBAC
:103750000120044908700E220221462000F0D4FA0C
:1037600010BD00000400002010B54FF4967000F06A
:103770007BFB0220034908700F220221462000F043
:10378000C3FA10BD0400002010B5002000F06CFB4F
:1037900000200449087011220221462000F0B4FAEA
:1037A00010BD00000400002010B50120FFF778FDD7
:1037B00064214843A1EB1030C0B210BD10B5FFF733
:1037C00085FD10BD1CB5FEF731F94FF4E01000F097
:1037D00083FB4FF4E13000F02BFCFFF7A7FFFFF76E
:1037E00091FD4FF41650FFF7C5FDFFF79DFEFFF763
:1037F000AFFEFFF7CDFEFFF7E1FF00F0CBF941F69A
:103800001F4142F20F7000F0DBFB87A0FCF7EAFCDF
:1038100000F09EFA00264FF0010A002700200190D8
:1038200000900024804600258146FCE0FFF782FEE0
:103830000646012E1FD1092204210A2000F064FA55
:10384000BAF1000F03D04FF0000A00F0CDFBFFF7F4
:10385000F1FD834600F060FDC7B20A2F02DAFFF7E0
:103860007FFD01E0FFF772FD00F02AFB052811D370
:10387000FFF776FD0EE00A220421104600F044FA1C
:1038800000F0BEFB002000F021FB4FF0010AFFF723
:103890005DFD00273A4668A101A8FCF7AFFC1023A4
:1038A00001AA04213C2000F099FA00F009FB8346AC
:1038B0005A4661A16846FCF7A1FC10236A4606211E
:1038C0003C2000F08BFAFFF7C7FE0446012C08D11C
:1038D0004046411C01F0FF0801280EDD4FF00008B2
:1038E0000BE0032C02D100F097FB06E0042C04D17E
:1038F00000F086FB002000F0E9FAB8F1000F06D0D6
:10390000B8F1010F26D0B8F1020F6ED155E00322B5
:1039100000213C2000F0F8F9042200214B2000F0A7
:10392000F3F9012E13D1FFF73FFF0546282D02DAE8
:10393000FFF7ECFE0DE0282D04DB462D02DCFFF73F
:1039400013FF06E0462D04DDFFF7FEFE01E0FFF762
:103950001BFF64E0052200213C2000F0D5F906227F
:1039600000214B2000F0D0F9022C25D1FFF7E6FE14
:1039700081464846411C01F0FF09022801DD4FF055
:103980000009B9F1000F09D0B9F1010F09D0B9F15F
:10399000020F09D0B9F1030F0CD108E0FFF7F4FED4
:1039A00009E0FFF7D1FE06E0FFF7DEFE03E0FFF7D8
:1039B000ADFE00E000BF00BF31E0072200213C2047
:1039C00000F0A2F9082200214B2000F09DF9FFF73A
:1039D000E7FC303807281ED2DFE800F004080B0EA1
:1039E00011141700FFF7D0FE16E017E0FFF7ACFE4A
:1039F00012E0FFF7B9FE0FE0FFF788FE0CE000F0E1
:103A0000F3FA09E000F0FCFA06E000F0F9FA002011
:103A100000F05CFA00E000BF00BF00E000BF00BFA4
:103A20001420FFF7C5FC01E768656C6C6F20776FA9
:103A3000726C64210D0A00002533640070B50646DF
:103A400000240EE02146002000F0F0F8002504E0FC
:103A5000304600F0F2F9681CC5B2802DF8DB601C1E
:103A6000C4B2082CEEDB70BD00B585B000BF1648AF
:103A7000806940F00800144988610846806900F0B8
:103A80000800009000BF00BF00BF0846806940F0FA
:103A9000080088610846806900F00800009000BFB7
:103AA00000BF402001900120029003900320049069
:103AB00001A90648FDF70AFE8020019001A90348EC
:103AC000FDF704FE05B000BD00100240000C0140EF
:103AD00010B5012240210448FDF790FF002240214B
:103AE0000148FDF78BFF10BD000C014010B501220D
:103AF00040210948FDF782FF012280210648FDF799
:103B00007DFF002280210448FDF778FF002240213C
:103B10000148FDF773FF10BD000C014010B50122F4
:103B200040210748FDF76AFF002280210448FDF785
:103B300065FF012280210248FDF760FF10BD0000F3
:103B4000000C014070B50446254600261CE005F037
:103B50008000802805D1012280210D48FDF74EFF0D
:103B600004E0002280210A48FDF748FF6806050EA0
:103B7000012240210648FDF741FF00224021044870
:103B8000FDF73CFF701CC6B2082EE0DB70BD0000E4
:103B9000000C014010B5FFF767FF6420FFF708FC39
:103BA000AE2000F034F9D52000F031F9802000F08B
:103BB0002EF9A82000F02BF93F2000F028F9D3209F
:103BC00000F025F9002000F022F9402000F01FF954
:103BD000A12000F01CF9C82000F019F9DA2000F04B
:103BE00016F9122000F013F9812000F010F9CF200F
:103BF00000F00DF9D92000F00AF9F12000F007F9E2
:103C0000DB2000F004F9302000F001F9A42000F0DE
:103C1000FEF8A62000F0FBF88D2000F0F8F8142044
:103C200000F0F5F8AF2000F0F2F810BD70B50446D2
:103C30000D4605F1B001C8B200F0E9F804F00F003C
:103C400000F0E5F8102141EA141000F0E0F870BD32
:103C50002DE9F0478246884616461C46A6F120000C
:103C6000C6B22046E11704EB5171C1F3C709E11751
:103C700004EB5171C910A4EBC10119B109F10100A4
:103C800000F0FF09002535E008EB0500C1B2504601
:103C9000FFF7CCFF204604EBD07149106943CFB247
:103CA0001FE00C2C08D106EB4601144A02EB8101FF
:103CB000C85D00F0C2F812E0102C06D1104901EBEB
:103CC0000611C85D00F0B9F809E0182C07D106EB21
:103CD000C6010C4A02EB8101C85D00F0AEF8781C09
:103CE000C7B204EBD47149106A1C5143B942D8DC05
:103CF000681CC5B24D45C7DBBDE8F0878C4800089D
:103D0000004D0008F05200082DE9F04180460E46B3
:103D10001746002415E03019C1B24046FFF786FF70
:103D20002005050C07E0094901EB4711485D00F04B
:103D300084F8681C85B2601C0001A842F3DC601C9A
:103D400084B2022CE7DBBDE8F081000004440008E7
:103D500010B50020FFF772FE012200210A20FFF7B4
:103D6000D3FF022200211920FFF7CEFF00221146C7
:103D70002820FFF7C9FF0C2202210A20FFF7C4FF09
:103D80000D2202211920FFF7BFFF00220221282067
:103D9000FFF7BAFF0B2204211920FFF7B5FF10230C
:103DA0000DA20421602000F019F8122206210A2039
:103DB000FFF7AAFF132206211920FFF7A5FF002213
:103DC00006212820FFF7A0FF10237322062164207C
:103DD000FFF73EFF10BD0000636D00002DE9F041CC
:103DE00006460F4614461D460CE022782B463946FF
:103DF0003046FFF72DFF284605EBD07106EB610139
:103E0000CEB2641C20780028EFD1BDE8F08110B557
:103E10000446FFF76BFE7820FFF794FEFFF758FE8D
:103E20000020FFF78FFEFFF753FE2046FFF78AFEC4
:103E3000FFF74EFEFFF772FE10BD10B50446FFF708
:103E400055FE7820FFF77EFEFFF742FE4020FFF789
:103E500079FEFFF73DFE2046FFF774FEFFF738FEC0
:103E6000FFF75CFE10BD000001490968C863704798
:103E70002C00002030B587B005460C461C21684652
:103E8000FCF722FB0C480D49086008464460C560F9
:103E900000218160FEF720FD60200090002001904D
:103EA0000290082269460548FEF794FC0821034861
:103EB000FEF780FD07B030BD000400402C0000205C
:103EC00001480068704700000C00002001490860AC
:103ED000704700000C00002030B58FB0054601246B
:103EE000282105A8FCF7F0FA14216846FCF7ECFA43
:103EF00001200590000406900020079002200C90FD
:103F0000C1030D910E9505A8FEF768F804460CB1A3
:103F100000BFFEE70F2000900220019000200290D9
:103F20004FF4806003900020049002216846FDF762
:103F300031FF04460CB100BFFEE70FB030BD0000FA
:103F400002480068406A80B2704700003C010020CF
:103F500008B500BF0D48C06940F001000B49C861B9
:103F60000846C06900F00100009000BF00BF88044F
:103F700007490860472048604FF6FF710448C16058
:103F8000002181608161FEF777FA08BD00100240D0
:103F90003C01002001490968486270473C0100204B
:103FA00010B50248FEF7BEFA10BD00003C0100202B
:103FB00010B50248FEF728FB10BD00003C010020B0
:103FC00070B505460C460648064908600846446038
:103FD000C560002181608161FEF74EFA70BD00006E
:103FE00000080040B401002010B50348FEF7D0FAE5
:103FF00001200249087010BDB4010020100000200B
:1040000010B50348FEF700FB00200249087010BD00
:10401000B40100201000002010B50448007810B151
:10402000FFF7EEFF01E0FFF7DFFF10BD10000020FB
:1040300010B5044607480849086008464460002156
:104040008160C160016181610C214161FEF72BFD3E
:1040500010BD000000380140FC01002010B5802197
:104060000348FCF731FA00200249088010BD000027
:10407000440200201200002010B580210348FCF704
:1040800023FA00200249088010BD0000BC00002077
:104090000800002021F00042A2F16052B2F5801F1A
:1040A00001F0004328BFD2F17F6C0BD95FEA001CFE
:1040B00043EAC20242EB507018BF704728BF20F09D
:1040C00001007047B2F5801FBCBF184670474FEA29
:1040D000410C1CF5001F02D2084600F082B970B5F1
:1040E00000F0C6F800000089FFF7F6BF4FF000406F
:1040F000A0F580007047B0FA80F310FA03F10AD0FF
:10410000C3F11D0303F580634FEA41504FEA0352A8
:1041100002EBD12170474FF000007047DFF848C133
:1041200070B51CEA111E1EBF1CEA13159EEA0C0F87
:1041300095EA0C0F00F06F8081EA030423EA4C1328
:104140004EEAD47E21EA4C1141F4801143F48013ED
:10415000AE44A1FB024CA0FB0365AEF17F7E361995
:1041600055EB0C05A1FB034C4CF10003A0FB021C1A
:1041700016EB0C06654153F10003094218BF46F0E7
:10418000010613F4007F0BD14FEA03314FEA0530EB
:10419000340341EA155140EA16506FF003020AE079
:1041A0004FEAC3214FEAC520F40241EA555140EAE3
:1041B00056506FF0020202EB2E4201EB025585EAE7
:1041C000CE710AD05FEA440C18BF24F0004450F1CD
:1041D000000041F1000120EAD47040F2FE7C62450B
:1041E00000D270BDA84214BF4FF080444FF040444D
:1041F000002E08BF0024BEF1806FA8BFA1F1C0410E
:10420000BDE8704080F282804FF0000001F1C041B3
:1042100001F0004170479EEA0C0F0CEA131518BF1D
:1042200095EA0C0F06D04FF0000081EA030E0EF065
:10423000004170BD00F01CF88900013E00F007B895
:1042400000F009B84FEA430C5FEA5C5C08D081EAF1
:10425000030100F05BB84FEA410C5FEA5C5CF6D109
:104260004FF00000014970470000FF070000F87F91
:104270000EF1020E2EF0030E5EF8046B364205D4EA
:10428000012A43EB030515F5001F12D8012841EB65
:10429000010C1CF5001F0CD80ED14FEAD17C15F58E
:1042A000001F0CEB4C0C0CF1020C08BF4CEBD37C48
:1042B00004E04FF0080C01E04FEAD37C0CEB4C0516
:1042C00026FA05F606F00706B6F1040C06D20EEB48
:1042D000860CBDE870404CF0010C6047DFE80CF044
:1042E000090B02024FF000414FF00000A1F5002140
:1042F00070BD19461046012851EB010418BFD4F5D2
:10430000001484BF002001F0004170BD0808A0F532
:1043100000114FEA31017047C10DD1F19E0206DB59
:104320004FEA002343F0004323FA02F070470042B3
:1043300007D54FEA4001B1F1FE4F02D24FF0000025
:10434000704710B500F007F84992248000207047AC
:104350006FEA200070470EF1020E2EF0030E5EF899
:10436000044B244204D44FEA4102B2F17F4F11D8EA
:104370004FEA4003B3F17F4F0CD80ED14FEAD07C07
:10438000B2F17F4F0CEB4C0C0CF1020C08BF4CEB64
:10439000D17C04E04FF0080C01E04FEAD17C0CEB3B
:1043A0004C0324FA03F404F00704B4F1040C06D21D
:1043B0000EEB840CBDE810404CF0010C6047DFE8C8
:1043C0000CF0070802024FF00040A0F5800010BD7D
:1043D0000846420018BFD2F1807288BF00F000404A
:1043E00010BDFF2141EAD050C00570470000000019
:1043F0000000000001020304060708090000000095
:1044000001020304000000000000000000000000A2
:104410000000000000003636000000000000000030
:10442000000000001010D0FF9014E4AFA4A4A4AFCB
:10443000E4040000040300FF00894B2A1A0E1A2A24
:104440004B888000101090909090901010FF1010EA
:1044500011161000002060203F10101000030C10F7
:104460002040F800109453321E325210007E424217
:10447000427E0000000000FF49494949494949FF7F
:104480000000000008CC4A49484ACC18007F8888C0
:104490008482E00000FF121252927F00007E888822
:1044A0008482E000101010FF9020988888E98E88A0
:1044B00088A898000242817F000080844B28102841
:1044C000478000004030EF242480E49C105454FFC7
:1044D000547C100001017F21512618274445455F77
:1044E00045454400404042CC002022E22222E22204
:1044F000222000000080403F40A0988780809FA03D
:10450000A0BC80002424A4FE2322003E22222222DA
:10451000223E0000080601FF0106404949497F4943
:104520004949410004040484E43C2724242424E46D
:104530000404040004020100FF0909090949897FF4
:10454000000000000040424242C27E42C24242425B
:1045500040400000804020100C0300003F404040DD
:1045600040700000000000000000C03FC0000000DC
:1045700000000000804020100C03000000030C101D
:10458000204080000004047454545556545454740C
:1045900004040000848341211D05050505057D8176
:1045A0008185E3000000FC242424FC252624FC242F
:1045B0002424040040308F80844C55252525554CFB
:1045C00080808000008060F80700FC848484FE8284
:1045D00083828000010000FF0000FF402000418E28
:1045E0003040F8000000F010101010FF10101010F4
:1045F000F000000000000F04040404FF040404049D
:104600000F00000004040404F49495969494F404B8
:104610000404040000FE02027A4A4A4A4A4A7A0224
:1046200082FE000000001011161010F0101014137C
:10463000100000008181414121110D030D11214124
:1046400041818100404042CC0040404040FF40401A
:10465000404040000000007F2010000000FF0000EC
:104660000000000000FC848484FC00101010101076
:10467000FF101000003F1010103F000001064080A6
:104680007F0000000000FC2424242526242424FC90
:10469000000000000000FF814121030509112945A8
:1046A00042808000404042CC000020180F08F808EB
:1046B000080800000000007F201001010101FF0137
:1046C000010101008080EE888888E88F088878489A
:1046D0004E40C00000007F2424247F008140300F22
:1046E00030418000000000000001E21CE0000000FA
:1046F00000000000804020100C03000000030C307C
:1047000040808000101090909090901010FF10103A
:1047100011161000002060203F10101000030C1034
:104720002040F8000000000000F0F0101010121CF3
:1047300018101010F0F00000000000000000000051
:1047400000FFFF111131D11111111111BFDF6000F4
:104750000000000000000000003F7F301008080546
:10476000060E091910303060200000000000000023
:104770000C3810000000C0783E2420E020202020CB
:10478000300000000002020202FE020014131010AA
:10479000101010FF10101010101810000000000072
:1047A000001F0C04020100000000007F0000000058
:1047B0000000000000000000F8484040C040407E7B
:1047C000444040C04040FC78000000000000080861
:1047D000FF89888888FF090444300EEBE9280828FF
:1047E0001C0C0000000000003F101010103F404063
:1047F00020100C0700030C1830602000000000009F
:1048000000000004080810F0C000000000000000D4
:10481000000000000000000000000080C0381E03FF
:10482000010E70E080000000000000000040201039
:1048300008040201000000000000000003070E1C35
:104840003810100000000080808080808080808090
:1048500080FCFC808488987060400000000008089C
:10486000080808F80808080800037FE000000000B6
:1048700000000000000030301010080F0808040489
:1048800004000003071C1830607E40000000000098
:1048900000000000000000000000FC00000000001C
:1048A00002000000000C020C0200000000000000EA
:1048B00090D0BCD0BC900003000300001824FE443C
:1048C0008C000302070201001824D8B04C800003BA
:1048D00000010201C038E438E000010202010202D6
:1048E000080600000000000000000000000000F8C2
:1048F0000402000000010204000204F800000004A9
:10490000020100009060F8609000000001000000CB
:104910002020FC202000000001000000000000001A
:1049200000000806000000002020202020000000D9
:104930000000000000000000000000020000000075
:104940000080601C0200040300000000F80404045E
:10495000F8000102020201000008FC000000000251
:10496000030200001884442418000302020202001B
:1049700008042424D80001020202010040B088FC8F
:1049800080000000000302003C242424C400010233
:1049900002020100F824242CC000010202020100DE
:1049A0000C04E41C0400000003000000D8242424AC
:1049B000D80001020202010038444444F800000318
:1049C00002020100000010000000000002000000D0
:1049D00000002000000000000600000000205088B9
:1049E00004020000000001029090909090000000EE
:1049F00000000000000204885020000201000000B6
:104A00001804C4241800000002000000F804E49414
:104A1000F80001020202020000E09CF080000203A4
:104A20000000030204FC2424D80002030202010057
:104A3000F80404040C0001020202010004FC040456
:104A4000F80002030202010004FC24740C000203BB
:104A50000202030004FC24740C00020302000000A4
:104A6000F0080444CC4000010202010004FC2020B4
:104A7000FC040203000003020404FC04040002021C
:104A800003020200000404FC040406040403000002
:104A900004FC24D00C0402030200030204FC040002
:104AA0000000020302020203FC3CC03CFC000300C5
:104AB0000300030004FC30C4FC04020302000300F2
:104AC000F8040404F80001020202010004FC24249A
:104AD0001800020302000000F8848404F8000102B8
:104AE0000207050004FC246498000203020003028C
:104AF000182424448C000302020201000C04FC046C
:104B00000C0000020302000004FC0000FC04000191
:104B100002020100047C80E01C040000030000008D
:104B20001CE03CE01C00000300030000049C609CAF
:104B30000400020300030200041CE01C0400000245
:104B4000030200000C84641C040002030202030040
:104B50000000FE020200000007040400000E30C046
:104B60000000000000010200000202FE000000043C
:104B70000407000000040204000000000000000020
:104B800000000000000008080808080800000200F3
:104B900000000000000000000040A0A0C0000001D4
:104BA0000202030204FC2020C000000302020100F4
:104BB00000C02020600000010202020000C020248A
:104BC000FC0000010202030200C0A0A0C00000011E
:104BD000020202000020F824240400020302020062
:104BE0000040A0A0602000070A0A0A0404FC20205C
:104BF000C0000203020003020020E40000000002E3
:104C000003020000000020E400000808080700007C
:104C100004FC80E020200203020003020404FC00E4
:104C20000000020203020200E020E020C0000300B6
:104C30000300030020E02020C00002030200030262
:104C400000C02020C00000010202010020E020205E
:104C5000C000080F0A02010000C02020E00000018F
:104C6000020A0F0820E0402020000203020000009A
:104C70000060A0A020000002020203000020F82033
:104C8000000000000102020020E00020E00000011E
:104C90000202030220E020806020000003010000E7
:104CA0006080E080600000030003000020608060FE
:104CB000200002030003020020E02080602008089A
:104CC000070100000020A060200000020302020093
:104CD000000020DE0200000000070400000000FFCA
:104CE00000000000000F00000002DE2000000004B1
:104CF000070000000201020404020000000000009E
:104D000000000000000000000000000000000000A3
:104D1000000000F800000000000000333000000038
:104D200000100C06100C060000000000000000003F
:104D300040C07840C0784000043F04043F040400B1
:104D4000007088FC08300000001820FF211E0000C1
:104D5000F008F000E018000000211C031E211E00D6
:104D600000F00888700000001E212324192721105C
:104D700010160E00000000000000000000000000FF
:104D8000000000E0180402000000000718204000A6
:104D900000020418E0000000004020180700000096
:104DA000404080F0804040000202010F01020200FA
:104DB000000000F0000000000101011F01010100DE
:104DC000000000000000000080B070000000000043
:104DD00000000000000000000001010101010101CC
:104DE0000000000000000000003030000000000063
:104DF0000000000080601804006018060100000038
:104E000000E010080810E000000F102020100F0034
:104E1000001010F8000000000020203F20200000BB
:104E20000070080808887000003028242221300013
:104E300000300888884830000018202020110E001B
:104E40000000C02010F8000000070424243F2400C4
:104E500000F80888880808000019212020110E0099
:104E600000E0108888180000000F112020110E00AB
:104E700000380808C83808000000003F00000000A3
:104E80000070880808887000001C222121221C0064
:104E900000E010080810E0000000312222110F008D
:104EA000000000C0C0000000000000303000000022
:104EB0000000008000000000000080600000000092
:104EC00000008040201008000001020408102000AB
:104ED00040404040404040000404040404040400F6
:104EE000000810204080000000201008040201008B
:104EF000007048080808F00000000030360100008B
:104F0000C030C828E810E0000718272423140B003D
:104F10000000C038E0000000203C230202273820B7
:104F200008F8888888700000203F202020110E009B
:104F3000C030080808083800071820202010080092
:104F400008F808080810E000203F202020100F007B
:104F500008F88888E8081000203F20202320180047
:104F600008F88888E8081000203F200003000000AF
:104F7000C03008080838000007182020221E020050
:104F800008F808000008F808203F210101213F200F
:104F9000000808F8080800000020203F202000003A
:104FA00000000808F8080800C08080807F0000002A
:104FB00008F888C028180800203F20012638200063
:104FC00008F8080000000000203F202020203000CA
:104FD00008F8F800F8F80800203F003F003F2000E4
:104FE00008F830C00008F808203F200007183F00EC
:104FF000E01008080810E0000F10202020100F001B
:1050000008F808080808F000203F2101010100000D
:10501000E01008080810E0000F18242438504F0052
:1050200008F8888888887000203F2000030C302012
:1050300000708808080838000038202121221C0050
:10504000180808F8080818000000203F2000000099
:1050500008F808000008F808001F202020201F0082
:105060000878880000C83808000007380E010000E2
:10507000F80800F80008F800033C0700073C0300AC
:10508000081868808068180820302C03032C302012
:105090000838C800C83808000000203F2000000081
:1050A00010080808C83808002038262120201800D9
:1050B000000000FE020202000000007F40404000AD
:1050C000000C30C000000000000000010638C000E5
:1050D00000020202FE000000004040407F0000008D
:1050E00000000402020204000000000000000000B2
:1050F00000000000000000008080808080808080B0
:105100000002020400000000000000000000000097
:1051100000008080808000000019242222223F208D
:1051200008F8008080000000003F112020110E00D0
:105130000000008080800000000E1120202011005F
:10514000000000808088F800000E112020103F2011
:105150000000808080800000001F22222222130095
:10516000008080F0888888180020203F20200000E0
:105170000000808080808000006B94949493600095
:1051800008F8008080800000203F210000203F20A0
:1051900000809898000000000020203F20200000A0
:1051A000000000809898000000C08080807F000090
:1051B00008F8000080808000203F24022D3020006D
:1051C000000808F8000000000020203F2020000018
:1051D0008080808080808000203F20003F20003F32
:1051E0008080008080800000203F210000203F2040
:1051F0000000808080800000001F202020201F00F1
:10520000808000808000000080FFA12020110E001F
:105210000000008080808000000E112020A0FF8010
:10522000808080008080800020203F2120000100BD
:105230000000808080808000003324242424190012
:10524000008080E0808000000000001F202000001F
:105250008080000000808000001F202020103F2060
:10526000808080000080808000010E3008060100F0
:1052700080800080008080800F300C030C300F0095
:1052800000808000808080000020312E0E312000C0
:10529000808080000080808080818E7018060100F0
:1052A00000808080808080000021302C222130000E
:1052B00000000000807C020200000000003F40402F
:1052C00000000000FF00000000000000FF000000E0
:1052D0000002027C800000000040403F000000000F
:1052E00000060101020204040000000000000000AA
:1052F00000000000000000000000000000000000AE
:10530000000000000000000000000000000000009D
:10531000000000000000000000F0F0F000000000BD
:105320000000000000017F010000000000000000FC
:10533000001C1C1C0000000000008060301C8C6001
:10534000301C0C0000000000000000000000000005
:10535000000000000000000000000000000000E06D
:105360000000000000E000000086E69F868686863A
:10537000E69F860000011F01010101011F010100DC
:10538000000080C06020F820E0C00000000003079B
:105390000C18FF70E18100000000070F10107F1053
:1053A0000F0700008060206080000000E020000007
:1053B0000F3020309F70DC371030C0000000100E1E
:1053C00003000718101807000000C02020E0C000EC
:1053D0000000000080E01F38E88703C43C040000A0
:1053E000070F1810100B070D1010080000808C4CD0
:1053F0003800000000000000000000000000000075
:10540000000000000000000000000000000000009C
:1054100000000000000080E03008040000000000F0
:1054200000FEFF0100000000000000000000030F6C
:105430001820400000040830E08000000000000058
:105440000000000001FFFE000000000000402018E6
:105450000F03000000000000000000000000C0007A
:1054600000000000004266663C18FF183C66664279
:105470000000000000000300000000000000000029
:105480000000800000000000001010101010FF103D
:1054900010101010000000000000030000000000C9
:1054A00000000000000000000000000000000000FC
:1054B000000000000000000000808C4C380000005C
:1054C00000000000000000000000000000000000DC
:1054D000001010101010101010101000000000002C
:1054E00000000000000000000000000000000000BC
:1054F00000000000000000000000000000000000AC
:1055000000001C1C1C000000000000000000000047
:1055100000000000E0380C000000000080701C0358
:10552000000000000060380E0100000000000000D4
:10553000000080C060202060C080000000FEFF01ED
:105540000000000001FFFE000001070E18101018F7
:105550000E0701000000808080C0E0000000000015
:105560000000000000FFFF0000000000000010101D
:10557000101F1F101010000000804020202020600D
:10558000C080000000030300804020381F07000097
:10559000001C1A1918181818181F00000080C020C5
:1055A000202060C080000000000303001010182FAE
:1055B000E780000000070F10101010180F07000000
:1055C000000000000000C0E0F000000000C0B08853
:1055D000868180FFFF808000000000000010101F07
:1055E0001F1010000000E0606060606060600000FC
:1055F00000003F1008080818F0E0000000070B103A
:105600001010101C0F030000000080C0402020205C
:10561000E0C0000000FCFF211008080818F0E000BE
:105620000001070C18101010080F03000000C0E064
:105630006060606060E06000000003000000E0184F
:105640000700000000000000001F1F000000000015
:105650000080C0602020202060C080000087EF2CE8
:105660001818303068CF830000070F081010101092
:10567000180F07000000C0C020202020C0800000BC
:10568000001F3F604040402010FFFE0000000C1C47
:10569000101010080F0300000000000000000000C0
:1056A0000000000000000000000E0E0E00000000D0
:1056B00000000000001C1C1C000000000000000096
:1056C000000000000000000000000000000C0C00C2
:1056D000000000000000000000583800000000003A
:1056E0000000000000000080402010000000102892
:1056F00044820100000000000000000000000102E0
:10570000040810000000000000000000000000007D
:105710000084848484848484848484000000000061
:105720000000000000000000000010204080000089
:10573000000000000000000000000182442810006A
:1057400000001008040201000000000000C020203A
:105750001010101030E0C0000003030000F010082B
:105760000C070300000000001C1C1C0000000000CF
:10577000000000C0406020202040C00000FCFF016D
:10578000F00E03C1FE03807F0001070E0811111007
:10579000110904020000000080E0E00000000000A9
:1057A0000000807C4340477FF880000010181F10E5
:1057B00000000000131F1C1020E0E02020202060CB
:1057C000C080000000FFFF10101010182FE78000AD
:1057D000101F1F1010101010180F0700000080C0BD
:1057E000402020202060E00000FCFF0100000000BD
:1057F000000001000001070E18101010080403003B
:1058000020E0E02020202040C080000000FFFF00BA
:105810000000000001FFFE00101F1F1010101808EC
:105820000E07010020E0E0202020202020608000E2
:1058300000FFFF101010107C00000000101F1F1050
:10584000101010101018060020E0E020202020206A
:105850006060800000FFFF101010107C000001004D
:10586000101F1F100000000000000000000080C09A
:105870006020202040E0000000FCFF0100004040CC
:10588000C0C140400001070E181010100F0F00009B
:1058900020E0E0200000000020E0E02000FFFF10FA
:1058A0001010101010FFFF00101F1F10000000004C
:1058B000101F1F100000202020E0E020202000000A
:1058C0000000000000FFFF000000000000001010BA
:1058D000101F1F101010000000000000202020E00A
:1058E000E020202000000000000000FFFF0000007A
:1058F0000060E0808080C07F3F00000020E0E0206A
:10590000000020A06020200000FFFF30187CE3C0D2
:1059100000000000101F1F10000001131F1C1810B2
:1059200020E0E020000000000000000000FFFF0079
:105930000000000000000000101F1F1010101010C9
:105940001018060020E0E0E000000000E0E0E020A9
:1059500000FF013FFEC0E01E01FFFF00101F10000E
:10596000031F0300101F1F1020E0E0C00000000014
:105970000020E02000FF0003071C78E08000FF000B
:10598000101F100000000000030F1F00000080C067
:1059900060202060C080000000FEFF0100000000C9
:1059A00000FFFE000001070E181010180C07010080
:1059B00020E0E0202020202060C0800000FFFF20A9
:1059C00020202020301F0F00101F1F10000000009B
:1059D00000000000000080C060202060C080000047
:1059E00000FEFF010000000000FFFE000001070EA6
:1059F0001111133C7C67210020E0E02020202020B2
:105A000060C0800000FFFF101030F0D0080F0700CA
:105A1000101F1F10000000030F1C10100080C0603A
:105A2000202020204040E00000070F0C18183030E4
:105A300060E08100001F0C0810101010180F070004
:105A40008060202020E0E020202060800100000015
:105A500000FFFF000000000100000000101F1F10E9
:105A60000000000020E0E020000000000020E02016
:105A700000FFFF00000000000000FF0000070F18FB
:105A800010101010100807002060E0E02000000057
:105A900020E060200000077FF88000807C03000089
:105AA00000000000071F1C070000000020E0E020AD
:105AB00000E0E0200020E0200007FFF8E01FFFFCEE
:105AC000E01F00000000031F0300011F030000008F
:105AD000002060E0A0000020E06020000000000343
